{
  "contractName": "ProductPaymentContract",
  "abi": [
    {
      "inputs": [
        {
          "internalType": "contract ProductSupplyManagement",
          "name": "_parentContract",
          "type": "address"
        },
        {
          "internalType": "uint256",
          "name": "_priceinWei",
          "type": "uint256"
        },
        {
          "internalType": "uint256",
          "name": "_index",
          "type": "uint256"
        }
      ],
      "stateMutability": "nonpayable",
      "type": "constructor"
    },
    {
      "stateMutability": "nonpayable",
      "type": "fallback"
    },
    {
      "inputs": [],
      "name": "index",
      "outputs": [
        {
          "internalType": "uint256",
          "name": "",
          "type": "uint256"
        }
      ],
      "stateMutability": "view",
      "type": "function"
    },
    {
      "inputs": [],
      "name": "paymentcomplete",
      "outputs": [
        {
          "internalType": "uint256",
          "name": "",
          "type": "uint256"
        }
      ],
      "stateMutability": "view",
      "type": "function"
    },
    {
      "inputs": [],
      "name": "product_priceinWei",
      "outputs": [
        {
          "internalType": "uint256",
          "name": "",
          "type": "uint256"
        }
      ],
      "stateMutability": "view",
      "type": "function"
    },
    {
      "stateMutability": "payable",
      "type": "receive"
    }
  ],
  "bytecode": "0x608060405234801561001057600080fd5b5060405161077438038061077483398181016040528101906100329190610134565b816000819055508060028190555082600360006101000a81548173ffffffffffffffffffffffffffffffffffffffff021916908373ffffffffffffffffffffffffffffffffffffffff160217905550505050610187565b600080fd5b600073ffffffffffffffffffffffffffffffffffffffff82169050919050565b60006100b98261008e565b9050919050565b60006100cb826100ae565b9050919050565b6100db816100c0565b81146100e657600080fd5b50565b6000815190506100f8816100d2565b92915050565b6000819050919050565b610111816100fe565b811461011c57600080fd5b50565b60008151905061012e81610108565b92915050565b60008060006060848603121561014d5761014c610089565b5b600061015b868287016100e9565b935050602061016c8682870161011f565b925050604061017d8682870161011f565b9150509250925092565b6105de806101966000396000f3fe6080604052600436106100385760003560e01c80632986c0e5146102505780633e427d211461027b578063617caec1146102a657610241565b3661024157600060015414610082576040517f08c379a000000000000000000000000000000000000000000000000000000000815260040161007990610340565b60405180910390fd5b34600054146100c6576040517f08c379a00000000000000000000000000000000000000000000000000000000081526004016100bd906103ac565b60405180910390fd5b34600160008282546100d89190610405565b925050819055506000600360009054906101000a900473ffffffffffffffffffffffffffffffffffffffff1673ffffffffffffffffffffffffffffffffffffffff163460025460405160240161012e919061046a565b6040516020818303038152906040527f5114cb52000000000000000000000000000000000000000000000000000000007bffffffffffffffffffffffffffffffffffffffffffffffffffffffff19166020820180517bffffffffffffffffffffffffffffffffffffffffffffffffffffffff83818316178352505050506040516101b891906104ff565b60006040518083038185875af1925050503d80600081146101f5576040519150601f19603f3d011682016040523d82523d6000602084013e6101fa565b606091505b505090508061023e576040517f08c379a000000000000000000000000000000000000000000000000000000000815260040161023590610588565b60405180910390fd5b50005b34801561024d57600080fd5b50005b34801561025c57600080fd5b506102656102d1565b604051610272919061046a565b60405180910390f35b34801561028757600080fd5b506102906102d7565b60405161029d919061046a565b60405180910390f35b3480156102b257600080fd5b506102bb6102dd565b6040516102c8919061046a565b60405180910390f35b60025481565b60015481565b60005481565b600082825260208201905092915050565b7f5061796d656e7420616c726561647920636f6d706c6574650000000000000000600082015250565b600061032a6018836102e3565b9150610335826102f4565b602082019050919050565b600060208201905081810360008301526103598161031d565b9050919050565b7f506c656173652070617920696e2066756c6c20616d6f756e7400000000000000600082015250565b60006103966019836102e3565b91506103a182610360565b602082019050919050565b600060208201905081810360008301526103c581610389565b9050919050565b6000819050919050565b7f4e487b7100000000000000000000000000000000000000000000000000000000600052601160045260246000fd5b6000610410826103cc565b915061041b836103cc565b9250827fffffffffffffffffffffffffffffffffffffffffffffffffffffffffffffffff038211156104505761044f6103d6565b5b828201905092915050565b610464816103cc565b82525050565b600060208201905061047f600083018461045b565b92915050565b600081519050919050565b600081905092915050565b60005b838110156104b957808201518184015260208101905061049e565b838111156104c8576000848401525b50505050565b60006104d982610485565b6104e38185610490565b93506104f381856020860161049b565b80840191505092915050565b600061050b82846104ce565b915081905092915050565b7f546865207472616e73616374696f6e2077617320756e7375636365737366756c60008201527f2e2043616e63656c6c696e672e2e2e0000000000000000000000000000000000602082015250565b6000610572602f836102e3565b915061057d82610516565b604082019050919050565b600060208201905081810360008301526105a181610565565b905091905056fea2646970667358221220d9a6004eebd17ac0e8e58153c3fcac94d7887abc144a7f835aaed5fcf425ffb964736f6c634300080c0033",
  "immutableReferences": {},
  "source": "// SPDX-License-Identifier: GPL-3.0\r\n\r\n/*Mini Supply Chain*/\r\npragma solidity ^0.8.0;\r\n\r\nimport \"./ProductSupplyManagement.sol\";\r\n\r\ncontract ProductPaymentContract{\r\n        uint public product_priceinWei;\r\n        uint public paymentcomplete;\r\n        uint public index;\r\n\r\n        ProductSupplyManagement parentContract;\r\n\r\n        constructor(ProductSupplyManagement _parentContract,uint _priceinWei,uint _index) public{\r\n            product_priceinWei = _priceinWei;\r\n            index = _index;\r\n            parentContract =_parentContract;\r\n            \r\n        }\r\n\r\n        receive() external payable{\r\n            require(paymentcomplete == 0 , \"Payment already complete\");\r\n            require(product_priceinWei == msg.value,\"Please pay in full amount\");\r\n            paymentcomplete += msg.value;\r\n            (bool success,) = address(parentContract).call{value : msg.value}(abi.encodeWithSignature(\"makePayment(uint256)\",index));\r\n            require(success,\"The transaction was unsuccessful. Cancelling...\");\r\n        }\r\n\r\n        fallback ()external{}\r\n    \r\n    }",
  "sourcePath": "D:\\Work\\Code\\Blockchain\\Projects\\ProductSupplyChain\\contracts\\ProductPaymentContract.sol",
  "compiler": {
    "name": "solc",
    "version": "0.8.12+commit.f00d7308.Emscripten.clang"
  },
  "schemaVersion": "3.4.4",
  "updatedAt": "2022-03-09T14:19:44.070Z",
  "devdoc": {
    "kind": "dev",
    "methods": {},
    "version": 1
  },
  "userdoc": {
    "kind": "user",
    "methods": {},
    "version": 1
  }
}