{
  "contractName": "ProductSupplyManagement",
  "abi": [
    {
      "anonymous": false,
      "inputs": [
        {
          "indexed": true,
          "internalType": "address",
          "name": "previousOwner",
          "type": "address"
        },
        {
          "indexed": true,
          "internalType": "address",
          "name": "newOwner",
          "type": "address"
        }
      ],
      "name": "OwnershipTransferred",
      "type": "event"
    },
    {
      "anonymous": false,
      "inputs": [
        {
          "indexed": false,
          "internalType": "uint256",
          "name": "productNumber",
          "type": "uint256"
        },
        {
          "indexed": false,
          "internalType": "uint256",
          "name": "_step",
          "type": "uint256"
        },
        {
          "indexed": false,
          "internalType": "address",
          "name": "moneykeep_adress",
          "type": "address"
        }
      ],
      "name": "ProductStatusUpdate",
      "type": "event"
    },
    {
      "inputs": [
        {
          "internalType": "uint256",
          "name": "",
          "type": "uint256"
        }
      ],
      "name": "items",
      "outputs": [
        {
          "internalType": "contract ProductPaymentContract",
          "name": "productPayment",
          "type": "address"
        },
        {
          "internalType": "string",
          "name": "productSKU",
          "type": "string"
        },
        {
          "internalType": "uint256",
          "name": "productPrice",
          "type": "uint256"
        },
        {
          "internalType": "enum ProductSupplyManagement.trackProductStatus",
          "name": "status",
          "type": "uint8"
        }
      ],
      "stateMutability": "view",
      "type": "function"
    },
    {
      "inputs": [],
      "name": "owner",
      "outputs": [
        {
          "internalType": "address",
          "name": "",
          "type": "address"
        }
      ],
      "stateMutability": "view",
      "type": "function"
    },
    {
      "inputs": [],
      "name": "renounceOwnership",
      "outputs": [],
      "stateMutability": "nonpayable",
      "type": "function"
    },
    {
      "inputs": [
        {
          "internalType": "address",
          "name": "newOwner",
          "type": "address"
        }
      ],
      "name": "transferOwnership",
      "outputs": [],
      "stateMutability": "nonpayable",
      "type": "function"
    },
    {
      "inputs": [
        {
          "internalType": "string",
          "name": "entered_productSKU",
          "type": "string"
        },
        {
          "internalType": "uint256",
          "name": "entered_productPrice",
          "type": "uint256"
        }
      ],
      "name": "createProduct",
      "outputs": [],
      "stateMutability": "nonpayable",
      "type": "function"
    },
    {
      "inputs": [
        {
          "internalType": "uint256",
          "name": "product_number",
          "type": "uint256"
        }
      ],
      "name": "makeDelivery",
      "outputs": [],
      "stateMutability": "nonpayable",
      "type": "function"
    },
    {
      "inputs": [
        {
          "internalType": "uint256",
          "name": "product_number",
          "type": "uint256"
        }
      ],
      "name": "makePayment",
      "outputs": [],
      "stateMutability": "payable",
      "type": "function"
    }
  ],
  "bytecode": "0x608060405234801561001057600080fd5b5061002d61002261003260201b60201c565b61003a60201b60201c565b6100fe565b600033905090565b60008060009054906101000a900473ffffffffffffffffffffffffffffffffffffffff169050816000806101000a81548173ffffffffffffffffffffffffffffffffffffffff021916908373ffffffffffffffffffffffffffffffffffffffff1602179055508173ffffffffffffffffffffffffffffffffffffffff168173ffffffffffffffffffffffffffffffffffffffff167f8be0079c531659141344cd1fd0a4f28419497f9722a3daafe3b4186f6b6457e060405160405180910390a35050565b611c9c8061010d6000396000f3fe6080604052600436106200007a5760003560e01c80638da5cb5b11620000555780638da5cb5b14620000e7578063bfb231d21462000117578063e9300c6c146200015e578063f2fde38b146200018c576200007a565b80632073ae3f146200007f5780635114cb5214620000ad578063715018a614620000cd575b600080fd5b3480156200008c57600080fd5b50620000ab6004803603810190620000a5919062000c0f565b620001ba565b005b620000cb6004803603810190620000c5919062000c0f565b620003c0565b005b348015620000da57600080fd5b50620000e56200059d565b005b348015620000f457600080fd5b50620000ff6200062e565b6040516200010e919062000c86565b60405180910390f35b3480156200012457600080fd5b506200014360048036038101906200013d919062000c0f565b62000657565b60405162000155949392919062000e43565b60405180910390f35b3480156200016b57600080fd5b506200018a600480360381019062000184919062000fe8565b62000744565b005b3480156200019957600080fd5b50620001b86004803603810190620001b291906200107f565b62000932565b005b620001c462000a36565b73ffffffffffffffffffffffffffffffffffffffff16620001e46200062e565b73ffffffffffffffffffffffffffffffffffffffff16146200023d576040517f08c379a0000000000000000000000000000000000000000000000000000000008152600401620002349062001101565b60405180910390fd5b6001600281111562000254576200025362000dc3565b5b6001600083815260200190815260200160002060030160009054906101000a900460ff1660028111156200028d576200028c62000dc3565b5b14620002d0576040517f08c379a0000000000000000000000000000000000000000000000000000000008152600401620002c79062001199565b60405180910390fd5b60026001600083815260200190815260200160002060030160006101000a81548160ff021916908360028111156200030d576200030c62000dc3565b5b02179055507f36992274d9b1cf86d4fefaf76f7e3358474feccd7ebf32c7ef45fc04745f3b91816001600084815260200190815260200160002060030160009054906101000a900460ff1660028111156200036d576200036c62000dc3565b5b6001600085815260200190815260200160002060000160009054906101000a900473ffffffffffffffffffffffffffffffffffffffff16604051620003b593929190620011bb565b60405180910390a150565b346001600083815260200190815260200160002060020154146200041b576040517f08c379a0000000000000000000000000000000000000000000000000000000008152600401620004129062001248565b60405180910390fd5b6000600281111562000432576200043162000dc3565b5b6001600083815260200190815260200160002060030160009054906101000a900460ff1660028111156200046b576200046a62000dc3565b5b14620004ae576040517f08c379a0000000000000000000000000000000000000000000000000000000008152600401620004a590620012e0565b60405180910390fd5b600180600083815260200190815260200160002060030160006101000a81548160ff02191690836002811115620004ea57620004e962000dc3565b5b02179055507f36992274d9b1cf86d4fefaf76f7e3358474feccd7ebf32c7ef45fc04745f3b91816001600084815260200190815260200160002060030160009054906101000a900460ff1660028111156200054a576200054962000dc3565b5b6001600085815260200190815260200160002060000160009054906101000a900473ffffffffffffffffffffffffffffffffffffffff166040516200059293929190620011bb565b60405180910390a150565b620005a762000a36565b73ffffffffffffffffffffffffffffffffffffffff16620005c76200062e565b73ffffffffffffffffffffffffffffffffffffffff161462000620576040517f08c379a0000000000000000000000000000000000000000000000000000000008152600401620006179062001101565b60405180910390fd5b6200062c600062000a3e565b565b60008060009054906101000a900473ffffffffffffffffffffffffffffffffffffffff16905090565b60016020528060005260406000206000915090508060000160009054906101000a900473ffffffffffffffffffffffffffffffffffffffff1690806001018054620006a29062001331565b80601f0160208091040260200160405190810160405280929190818152602001828054620006d09062001331565b8015620007215780601f10620006f55761010080835404028352916020019162000721565b820191906000526020600020905b8154815290600101906020018083116200070357829003601f168201915b5050505050908060020154908060030160009054906101000a900460ff16905084565b6200074e62000a36565b73ffffffffffffffffffffffffffffffffffffffff166200076e6200062e565b73ffffffffffffffffffffffffffffffffffffffff1614620007c7576040517f08c379a0000000000000000000000000000000000000000000000000000000008152600401620007be9062001101565b60405180910390fd5b60003082600254604051620007dc9062000b02565b620007ea93929190620013a0565b604051809103906000f08015801562000807573d6000803e3d6000fd5b5090508260016000600254815260200190815260200160002060010190805190602001906200083892919062000b10565b508160016000600254815260200190815260200160002060020181905550600060016000600254815260200190815260200160002060030160006101000a81548160ff0219169083600281111562000895576200089462000dc3565b5b02179055507f36992274d9b1cf86d4fefaf76f7e3358474feccd7ebf32c7ef45fc04745f3b9160025460016000600254815260200190815260200160002060030160009054906101000a900460ff166002811115620008f957620008f862000dc3565b5b836040516200090b93929190620011bb565b60405180910390a16002600081548092919062000928906200140c565b9190505550505050565b6200093c62000a36565b73ffffffffffffffffffffffffffffffffffffffff166200095c6200062e565b73ffffffffffffffffffffffffffffffffffffffff1614620009b5576040517f08c379a0000000000000000000000000000000000000000000000000000000008152600401620009ac9062001101565b60405180910390fd5b600073ffffffffffffffffffffffffffffffffffffffff168173ffffffffffffffffffffffffffffffffffffffff16141562000a28576040517f08c379a000000000000000000000000000000000000000000000000000000000815260040162000a1f90620014d0565b60405180910390fd5b62000a338162000a3e565b50565b600033905090565b60008060009054906101000a900473ffffffffffffffffffffffffffffffffffffffff169050816000806101000a81548173ffffffffffffffffffffffffffffffffffffffff021916908373ffffffffffffffffffffffffffffffffffffffff1602179055508173ffffffffffffffffffffffffffffffffffffffff168173ffffffffffffffffffffffffffffffffffffffff167f8be0079c531659141344cd1fd0a4f28419497f9722a3daafe3b4186f6b6457e060405160405180910390a35050565b61077480620014f383390190565b82805462000b1e9062001331565b90600052602060002090601f01602090048101928262000b42576000855562000b8e565b82601f1062000b5d57805160ff191683800117855562000b8e565b8280016001018555821562000b8e579182015b8281111562000b8d57825182559160200191906001019062000b70565b5b50905062000b9d919062000ba1565b5090565b5b8082111562000bbc57600081600090555060010162000ba2565b5090565b6000604051905090565b600080fd5b600080fd5b6000819050919050565b62000be98162000bd4565b811462000bf557600080fd5b50565b60008135905062000c098162000bde565b92915050565b60006020828403121562000c285762000c2762000bca565b5b600062000c388482850162000bf8565b91505092915050565b600073ffffffffffffffffffffffffffffffffffffffff82169050919050565b600062000c6e8262000c41565b9050919050565b62000c808162000c61565b82525050565b600060208201905062000c9d600083018462000c75565b92915050565b6000819050919050565b600062000cce62000cc862000cc28462000c41565b62000ca3565b62000c41565b9050919050565b600062000ce28262000cad565b9050919050565b600062000cf68262000cd5565b9050919050565b62000d088162000ce9565b82525050565b600081519050919050565b600082825260208201905092915050565b60005b8381101562000d4a57808201518184015260208101905062000d2d565b8381111562000d5a576000848401525b50505050565b6000601f19601f8301169050919050565b600062000d7e8262000d0e565b62000d8a818562000d19565b935062000d9c81856020860162000d2a565b62000da78162000d60565b840191505092915050565b62000dbd8162000bd4565b82525050565b7f4e487b7100000000000000000000000000000000000000000000000000000000600052602160045260246000fd5b6003811062000e065762000e0562000dc3565b5b50565b600081905062000e198262000df2565b919050565b600062000e2b8262000e09565b9050919050565b62000e3d8162000e1e565b82525050565b600060808201905062000e5a600083018762000cfd565b818103602083015262000e6e818662000d71565b905062000e7f604083018562000db2565b62000e8e606083018462000e32565b95945050505050565b600080fd5b600080fd5b7f4e487b7100000000000000000000000000000000000000000000000000000000600052604160045260246000fd5b62000edb8262000d60565b810181811067ffffffffffffffff8211171562000efd5762000efc62000ea1565b5b80604052505050565b600062000f1262000bc0565b905062000f20828262000ed0565b919050565b600067ffffffffffffffff82111562000f435762000f4262000ea1565b5b62000f4e8262000d60565b9050602081019050919050565b82818337600083830152505050565b600062000f8162000f7b8462000f25565b62000f06565b90508281526020810184848401111562000fa05762000f9f62000e9c565b5b62000fad84828562000f5b565b509392505050565b600082601f83011262000fcd5762000fcc62000e97565b5b813562000fdf84826020860162000f6a565b91505092915050565b6000806040838503121562001002576200100162000bca565b5b600083013567ffffffffffffffff81111562001023576200102262000bcf565b5b620010318582860162000fb5565b9250506020620010448582860162000bf8565b9150509250929050565b620010598162000c61565b81146200106557600080fd5b50565b60008135905062001079816200104e565b92915050565b60006020828403121562001098576200109762000bca565b5b6000620010a88482850162001068565b91505092915050565b7f4f776e61626c653a2063616c6c6572206973206e6f7420746865206f776e6572600082015250565b6000620010e960208362000d19565b9150620010f682620010b1565b602082019050919050565b600060208201905081810360008301526200111c81620010da565b9050919050565b7f50726f64756374206973206e6f7420656c696769626c6520666f722064656c6960008201527f7665727900000000000000000000000000000000000000000000000000000000602082015250565b60006200118160248362000d19565b91506200118e8262001123565b604082019050919050565b60006020820190508181036000830152620011b48162001172565b9050919050565b6000606082019050620011d2600083018662000db2565b620011e1602083018562000db2565b620011f0604083018462000c75565b949350505050565b7f506c65617365206d616b652066756c6c207061796d656e740000000000000000600082015250565b60006200123060188362000d19565b91506200123d82620011f8565b602082019050919050565b60006020820190508181036000830152620012638162001221565b9050919050565b7f50726f6475637420646f6573206e6f74206578697374206f722068617320626560008201527f656e2064656c6976657265640000000000000000000000000000000000000000602082015250565b6000620012c8602c8362000d19565b9150620012d5826200126a565b604082019050919050565b60006020820190508181036000830152620012fb81620012b9565b9050919050565b7f4e487b7100000000000000000000000000000000000000000000000000000000600052602260045260246000fd5b600060028204905060018216806200134a57607f821691505b6020821081141562001361576200136062001302565b5b50919050565b6000620013748262000cad565b9050919050565b6000620013888262001367565b9050919050565b6200139a816200137b565b82525050565b6000606082019050620013b760008301866200138f565b620013c6602083018562000db2565b620013d5604083018462000db2565b949350505050565b7f4e487b7100000000000000000000000000000000000000000000000000000000600052601160045260246000fd5b6000620014198262000bd4565b91507fffffffffffffffffffffffffffffffffffffffffffffffffffffffffffffffff8214156200144f576200144e620013dd565b5b600182019050919050565b7f4f776e61626c653a206e6577206f776e657220697320746865207a65726f206160008201527f6464726573730000000000000000000000000000000000000000000000000000602082015250565b6000620014b860268362000d19565b9150620014c5826200145a565b604082019050919050565b60006020820190508181036000830152620014eb81620014a9565b905091905056fe608060405234801561001057600080fd5b5060405161077438038061077483398181016040528101906100329190610134565b816000819055508060028190555082600360006101000a81548173ffffffffffffffffffffffffffffffffffffffff021916908373ffffffffffffffffffffffffffffffffffffffff160217905550505050610187565b600080fd5b600073ffffffffffffffffffffffffffffffffffffffff82169050919050565b60006100b98261008e565b9050919050565b60006100cb826100ae565b9050919050565b6100db816100c0565b81146100e657600080fd5b50565b6000815190506100f8816100d2565b92915050565b6000819050919050565b610111816100fe565b811461011c57600080fd5b50565b60008151905061012e81610108565b92915050565b60008060006060848603121561014d5761014c610089565b5b600061015b868287016100e9565b935050602061016c8682870161011f565b925050604061017d8682870161011f565b9150509250925092565b6105de806101966000396000f3fe6080604052600436106100385760003560e01c80632986c0e5146102505780633e427d211461027b578063617caec1146102a657610241565b3661024157600060015414610082576040517f08c379a000000000000000000000000000000000000000000000000000000000815260040161007990610340565b60405180910390fd5b34600054146100c6576040517f08c379a00000000000000000000000000000000000000000000000000000000081526004016100bd906103ac565b60405180910390fd5b34600160008282546100d89190610405565b925050819055506000600360009054906101000a900473ffffffffffffffffffffffffffffffffffffffff1673ffffffffffffffffffffffffffffffffffffffff163460025460405160240161012e919061046a565b6040516020818303038152906040527f5114cb52000000000000000000000000000000000000000000000000000000007bffffffffffffffffffffffffffffffffffffffffffffffffffffffff19166020820180517bffffffffffffffffffffffffffffffffffffffffffffffffffffffff83818316178352505050506040516101b891906104ff565b60006040518083038185875af1925050503d80600081146101f5576040519150601f19603f3d011682016040523d82523d6000602084013e6101fa565b606091505b505090508061023e576040517f08c379a000000000000000000000000000000000000000000000000000000000815260040161023590610588565b60405180910390fd5b50005b34801561024d57600080fd5b50005b34801561025c57600080fd5b506102656102d1565b604051610272919061046a565b60405180910390f35b34801561028757600080fd5b506102906102d7565b60405161029d919061046a565b60405180910390f35b3480156102b257600080fd5b506102bb6102dd565b6040516102c8919061046a565b60405180910390f35b60025481565b60015481565b60005481565b600082825260208201905092915050565b7f5061796d656e7420616c726561647920636f6d706c6574650000000000000000600082015250565b600061032a6018836102e3565b9150610335826102f4565b602082019050919050565b600060208201905081810360008301526103598161031d565b9050919050565b7f506c656173652070617920696e2066756c6c20616d6f756e7400000000000000600082015250565b60006103966019836102e3565b91506103a182610360565b602082019050919050565b600060208201905081810360008301526103c581610389565b9050919050565b6000819050919050565b7f4e487b7100000000000000000000000000000000000000000000000000000000600052601160045260246000fd5b6000610410826103cc565b915061041b836103cc565b9250827fffffffffffffffffffffffffffffffffffffffffffffffffffffffffffffffff038211156104505761044f6103d6565b5b828201905092915050565b610464816103cc565b82525050565b600060208201905061047f600083018461045b565b92915050565b600081519050919050565b600081905092915050565b60005b838110156104b957808201518184015260208101905061049e565b838111156104c8576000848401525b50505050565b60006104d982610485565b6104e38185610490565b93506104f381856020860161049b565b80840191505092915050565b600061050b82846104ce565b915081905092915050565b7f546865207472616e73616374696f6e2077617320756e7375636365737366756c60008201527f2e2043616e63656c6c696e672e2e2e0000000000000000000000000000000000602082015250565b6000610572602f836102e3565b915061057d82610516565b604082019050919050565b600060208201905081810360008301526105a181610565565b905091905056fea2646970667358221220d9a6004eebd17ac0e8e58153c3fcac94d7887abc144a7f835aaed5fcf425ffb964736f6c634300080c0033a2646970667358221220289986bc11b20bcd7b74e4622404fe6eb5bda6ec0980af405ac2a0c3f1c2b4e564736f6c634300080c0033",
  "immutableReferences": {},
  "source": "// SPDX-License-Identifier: GPL-3.0\r\n\r\n/*Mini Supply Chain*/\r\npragma solidity ^0.8.0;\r\n\r\nimport \"@openzeppelin/contracts/access/Ownable.sol\";\r\nimport \"./ProductPaymentContract.sol\";\r\n\r\n\r\ncontract ProductSupplyManagement is Ownable{\r\n\r\n    enum trackProductStatus{Created, OrderConfirmed, Delivered}\r\n\r\n    struct product{\r\n        ProductPaymentContract productPayment;\r\n        string productSKU;\r\n        uint productPrice;\r\n        ProductSupplyManagement.trackProductStatus status;\r\n    }\r\n    \r\n    mapping(uint => product) public items;\r\n    uint productNumber;\r\n    event  ProductStatusUpdate(uint productNumber,uint _step, address moneykeep_adress);\r\n\r\n    function createProduct(string memory entered_productSKU, uint entered_productPrice) public onlyOwner{ \r\n        ProductPaymentContract _newproductkeep = new ProductPaymentContract(this,entered_productPrice,productNumber);\r\n        items[productNumber].productSKU = entered_productSKU;\r\n        items[productNumber].productPrice = entered_productPrice;\r\n        items[productNumber].status = trackProductStatus.Created;\r\n        emit ProductStatusUpdate(productNumber,uint(items[productNumber].status), address(_newproductkeep));\r\n        productNumber++;\r\n    }\r\n\r\n    function makeDelivery(uint product_number) public onlyOwner{\r\n        require(items[product_number].status == trackProductStatus.OrderConfirmed,\"Product is not eligible for delivery\");\r\n        items[product_number].status = trackProductStatus.Delivered;\r\n        emit ProductStatusUpdate(product_number,uint(items[product_number].status),address(items[product_number].productPayment));\r\n    }\r\n\r\n    function makePayment(uint product_number) public payable{\r\n        require(items[product_number].productPrice == msg.value, \"Please make full payment\"); \r\n        require(items[product_number].status == trackProductStatus.Created,\"Product does not exist or has been delivered\"); \r\n        items[product_number].status = trackProductStatus.OrderConfirmed;\r\n        emit ProductStatusUpdate(product_number,uint(items[product_number].status),address(items[product_number].productPayment)); \r\n    }\r\n}",
  "sourcePath": "D:\\Work\\Code\\Blockchain\\Projects\\ProductSupplyChain\\contracts\\ProductSupplyManagement.sol",
  "compiler": {
    "name": "solc",
    "version": "0.8.12+commit.f00d7308.Emscripten.clang"
  },
  "schemaVersion": "3.4.4",
  "updatedAt": "2022-03-09T14:19:44.087Z",
  "devdoc": {
    "kind": "dev",
    "methods": {
      "owner()": {
        "details": "Returns the address of the current owner."
      },
      "renounceOwnership()": {
        "details": "Leaves the contract without owner. It will not be possible to call `onlyOwner` functions anymore. Can only be called by the current owner. NOTE: Renouncing ownership will leave the contract without an owner, thereby removing any functionality that is only available to the owner."
      },
      "transferOwnership(address)": {
        "details": "Transfers ownership of the contract to a new account (`newOwner`). Can only be called by the current owner."
      }
    },
    "version": 1
  },
  "userdoc": {
    "kind": "user",
    "methods": {},
    "version": 1
  }
}